:020000040000FA
:040800001CEF05F0F4
:0808080053EF05F03652000029
:1008100001E11200FF0E00000000000000000000D7
:1008200000000000000000000000000000000000C8
:1008300000000000000000000000000000000000B8
:1008400000000000000000000000000000000000A8
:100850000000000000000000000000000000000098
:10086000000000000000000000000000FF0FD8A4FE
:10087000D2D70000000000000000000000000000CF
:1008800000000000000000000000362EC3D7120058
:10089000030EC06E050EC16E93503A6E100E93108B
:1008A000936E250EC26E3B6A280E3B6002D03B2A37
:1008B000FBD7020EC210C26EC2B2FED73A50936E80
:1008C0000F0EC16EC26A1200030EC06E050EC16E1D
:1008D00093503A6E100E9310936E250EC26E3B6AC3
:1008E000280E3B6002D03B2AFBD7020EC210C26E1C
:1008F000C2B2FED73A50936E0F0EC16EC26A12009A
:1009000048EC04F0C4503A6E120064EC04F0C45099
:100910003A6E1200E10E386E375224E1396A85ECE6
:1009200004F03A50376E3750386401D003D032505B
:10093000396E02D03350396E3952D890393680EC46
:1009400004F03A50376E3750386401D004D032503A
:100950003910396E03D033503910396E3952D8906E
:10096000393218D0360404E0020E36620AD005D0BF
:1009700085EC04F03A50376E04D080EC04F03A5025
:10098000376E3750386401D003D03250396E02D000
:100990003350396E39503A6E1200010E356E959013
:1009A00083909592839295948394959E839E120052
:1009B0003552D8B412003428346E070E341600EEC7
:1009C00005F0E9503450E926EF50366E36A002D0DB
:1009D000838001D0839036A202D0838201D083929B
:1009E00036A402D0838401D0839436A602D0838EAD
:1009F0001200839E12000F0EC16E080E6F6EA09A39
:100A0000010E326E336A2C6A010E316E020E306EA8
:100A10002F6AA60E2D6E5A0E2E6E325209E0CDECC4
:100A200004F0D8EC04F0320E366E06EC04F0F9D780
:100A3000366A8AEC04F0FCD7D50E0D6EC40E0E6E2D
:100A4000BB0E0F6EDC0E106E116A126A136A146A06
:100A5000156A166A176A186A196A1A6A1B6A1C6A82
:100A6000266A276A216A226A286A296A2A6A2B6A00
:100A70001D6A1E6A1F6A206A246A256A236A090E93
:100A8000056E010E066E050E076E040E086E060E4C
:100A9000096E020E0A6E0A0E0B6E080E0C6E346A98
:100AA000356AFBEF04F0EACF01F0E9CF02F0F4CFB2
:100AB00003F0F3CF04F004C0F3FF03C0F4FF02C05F
:080AC000E9FF01C0EAFF11008B
:020000040030CA
:0E000000200E3E1E008181000F800FA00F0019
:00000001FF
