:020000040000FA
:0408000006EF06F009
:080808002BEF06F03352000053
:1008100001E11200FF0E00000000000000000000D7
:1008200000000000000000000000000000000000C8
:1008300000000000000000000000000000000000B8
:1008400000000000000000000000000000000000A8
:100850000000000000000000000000000000000098
:10086000000000000000000000000000FF0FD8A4FE
:10087000D2D70000000000000000000000000000CF
:1008800000000000000000000000332EC3D712005B
:10089000FA0E336E06EC04F0FA0E336E06EC04F03A
:1008A000FA0E336E06EC04F0FA0E336E06EC04F02A
:1008B0002A2EEED71200030EC06E0E0EC16E92509D
:1008C0002E6E010E9210926E010EC26E2F6A280ECD
:1008D0002F6002D02F2AFBD7020EC210C26EC2B206
:1008E000FED72E50926E0F0EC16EC26A12005BECE4
:1008F00004F0C4502E6E120077EC04F02E502D6ED2
:100900002D502E6E12007CEC04F02E502A6E000E3C
:100910002A640AD0FE0E9514956EFE0E83142B6E7B
:10092000010E2B10836E06D0FE0E9514956EFE0EF2
:100930008314836E240E2A640AD0FD0E9514956EDE
:10094000FD0E83142B6E020E2B10836E06D0FD0E4F
:100950009514956EFD0E8314836E480E2A640AD09A
:10096000FB0E9514956EFB0E83142B6E040E2B104C
:10097000836E06D0FB0E9514956EFB0E8314836E6A
:100980006C0E2A640AD0F70E9514956EF70E831438
:100990002B6E080E2B10836E06D0F70E9514956EF5
:1009A000F70E8314836E910E2A640AD0EF0E95140D
:1009B000956EEF0E83142B6E100E2B10836E06D0E7
:1009C000EF0E9514956EEF0E8314836EB50E2A64A8
:1009D0000AD0DF0E9514956EDF0E83142B6E200E59
:1009E0002B10836E06D0DF0E9514956EDF0E8314E8
:1009F000836ED90E2A640AD0BF0E9514956EBF0E71
:100A000083142B6E400E2B10836E06D0BF0E9514F0
:100A1000956EBF0E8314836EFE0E2A640AD07F0E7D
:100A20009514956E7F0E83142B6E800E2B10836EA3
:100A300012007F0E9514956E7F0E8314836E120044
:100A40007CEC04F02E502B6E2B502A6401D003D086
:100A500027502C6E02D026502C6E2C502D6E12007A
:100A6000010E2A6E286A080E28600ED0956A2A5058
:100A7000836E640E336E06EC04F0956A836A2A5224
:100A8000D8902A36282AEFD7800E2A6E296A080EB7
:100A900029601200956A2A50836E640E336E06EC4C
:100AA00004F0956A836A2A52D8902A32292AEFD70D
:100AB00026502F6E2C6A2D6A010E9410946E010E32
:100AC0008214336E2E6A3304D8B42E2A2E5202E0DA
:100AD00027502F6E336A190E2C262D503322335097
:100AE0002D6E190E336E06EC04F0316A2D50800A1B
:100AF000336E2B50800A335C316204D02A502C6054
:100B000001D001D0D8A03170306A26502F6201D0B8
:100B1000302A326A3052D8A43152D8A4322A325202
:100B2000CBE12F50306E12002A0402E12B50BE6E32
:100B3000020E2A6212002B50BB6E1200CB68040E0C
:100B4000CA6E2A0403E10C0EBD6E9494020E2A6252
:100B500012000C0EBA6E949212002A04D8B4BD6A28
:100B6000020E2A621200BA6A12000F0EC16E080E3F
:100B70006F6EA09A010E276E266A30EC05F083ECAA
:100B800004F0800E2A6E20EC05F02D50256E2552C3
:100B900034E0010E2A6E9EEC05F0020E2A6E9EECE9
:100BA00005F0010E2A6E800E2B6E94EC05F0020EFD
:100BB0002A6E800E2B6E94EC05F0E80E2A6E030E62
:100BC0002B6E58EC05F03050246E2452D8E0010E04
:100BD0002A6EADEC05F0020E2A6EADEC05F02A6827
:100BE00048EC04F02A6848EC04F02A6848EC04F069
:100BF000EB0E2A6E48EC04F0C2D7010E2A6EADEC63
:100C000005F0020E2A6EADEC05F0B9D7D50E056ED3
:100C1000C40E066EBB0E076EDC0E086E096A0A6A09
:100C20000B6A0C6A0D6A0E6A0F6A106A116A126A00
:100C3000136A146A1E6A1F6A196A1A6A206A216A8C
:100C4000226A236A156A166A176A186A1C6A1D6A7C
:100C50001B6AB5EF05F0EACF01F0E9CF02F0F4CF5F
:100C600003F0F3CF04F004C0F3FF03C0F4FF02C0AD
:080C7000E9FF01C0EAFF1100D9
:020000040030CA
:0E000000200E3E1E008181000F800FA00F0019
:00000001FF
